:100000000C9434000C9449000C9449000C94490061
:100010000C9449000C9449000C9449000C9449003C
:100020000C9449000C9449000C9449000C9449002C
:100030000C9449000C9449000C9449000C9449001C
:100040000C9449000C9449000C9449000C9449000C
:100050000C9449000C9449000C9449000C944900FC
:100060000C9449000C94490011241FBECFEFD8E036
:10007000DEBFCDBF11E0A0E0B1E0E6EDFAE002C0E6
:1000800005900D92A632B107D9F70E94A1020C94F7
:1000900069050C9400000F931F93CF93DF9300D05A
:1000A00000D000D0CDB7DEB769837A838B839C8381
:1000B00000E010E01E821D8229813A814B815C8123
:1000C000B8018E819D810E94CE0387FD0FC060E044
:1000D00070E080E89FEB0F900F900F900F900F90C3
:1000E0000F90DF91CF911F910F91089598014E814C
:1000F0005D81B8018E819D810E94FC0429813A8135
:100100004B815C810E94F70418166CF02DEC3CECDE
:100110004CEC5DE3B8018E819D810E9462038B01EE
:100120008E839D83C9CF80E090E0BC01D4CF4F92F5
:100130005F926F927F928F929F92AF92BF92CF9277
:10014000DF92EF92FF920F931F93CF93DF93962E40
:10015000872E782E692E40E050E09A010E946203BB
:1001600020E030E040E05FE30E94FC048B01D82FE8
:10017000C92F64015301E12CF12C27012D2D3C2DB9
:100180004B2D5A2DB701852D942D0E94CE0381153C
:10019000A9F098014D2F5C2F6D2D7C2D8B2D9A2D64
:1001A0000E94CE03811551F098014D2F5C2FB701AD
:1001B000852D942D0E94CE03811114C0B8018D2F7E
:1001C0009C2FDF91CF911F910F91FF90EF90DF90C7
:1001D000CF90BF90AF909F908F907F906F905F90E7
:1001E0004F9008952D2D3C2D4B2D5A2DB701852D67
:1001F000942D0E94620320E030E040E05FE30E9423
:10020000FC048B01D82FC92F9B01482F592F0E9426
:10021000FC04292D382D472D562D0E94CE0387FF33
:1002200003C078012E01AACFD02EC12E5E01A6CF29
:10023000CF93DF93CDB7DEB728970FB6F894DEBF24
:100240000FBECDBF69837A838B839C839B01AC01F6
:100250000E94D30329813A814B815C810E94620311
:1002600020E030E040E05FE30E94FC046D837E8389
:100270008F8398879B01AC0169817A818B819C81F6
:100280000E94D3032D813E814F8158850E946203D5
:1002900020E030E040E05FE30E94FC046D837E8359
:1002A0008F8398879B01AC0169817A818B819C81C6
:1002B0000E94D3032D813E814F8158850E946203A5
:1002C00020E030E040E05FE30E94FC0428960FB697
:1002D000F894DEBF0FBECDBFDF91CF910895CF92CE
:1002E000DF92EF92FF92CF93DF9300D000D0CDB793
:1002F000DEB720E030E040E05FE30E94FC04698369
:100300007A838B839C832FEDC22E29E5D22E27E39F
:10031000E22E2FE5F22E9B01AC01C701B6010E942F
:10032000FC04A70196010E94FC049B01AC0160E063
:1003300070E080EC9FE30E946103A70196010E9498
:10034000FC046B017C0129813A814B815C810E9414
:10035000FC049601A7010E94FC049B01AC0160E033
:1003600070E080EC9FE30E9461039601A7010E9468
:10037000FC040F900F900F900F90DF91CF91FF90A2
:10038000EF90DF90CF9008951092C50087E680939C
:10039000C40088E08093C10086E08093C200089585
:1003A0009091C00095FFFCCF8093C6000895CF9335
:1003B000DF93EC018881811103C0DF91CF91089513
:1003C00021960E94D001F6CF8DE00E94D0018AE0F4
:1003D0000C94D001CF92DF92EF92FF921F93CF93B4
:1003E000DF93CDB7DEB72C970FB6F894DEBF0FBE04
:1003F000CDBF6B017C0110E0C114D104E104F10414
:1004000081F480E32C960FB6F894DEBF0FBECDBF0B
:10041000DF91CF911F91FF90EF90DF90CF900C94E0
:10042000D001B601C7012AE030E040E050E00E9470
:100430003F03FE013196E10FF11D17FDFA951F5F95
:10044000605D6083C601D70169017A010A97A10541
:10045000B10538F7111674F02C960FB6F894DEBF7C
:100460000FBECDBFDF91CF911F91FF90EF90DF9036
:10047000CF9008951150FE013196E10FF11D80815A
:100480000E94D001E7CF8F929F92AF92BF92CF92FE
:10049000DF92EF92FF92CF93DF9300D000D000D095
:1004A000CDB7DEB78D839E839B01A8EEB3E00E949B
:1004B000300369837A838B839C8316BC82E084BD7E
:1004C00093E095BD99EF97BD85BBA12CB12C45015B
:1004D0007401D12CC82E89819A81AB81BC81881688
:1004E0009906AA06BB06B8F0B601C70162507109A9
:1004F000810991090F900F900F900F900F900F901E
:10050000DF91CF91FF90EF90DF90CF90BF90AF90B1
:100510009F908F900895B601C7010E944504ED8118
:10052000FE810995FFEFCF1ADF0AEF0AFF0AA99BA8
:10053000D2CF82E085BB9FEF891A990AA90AB90A2E
:10054000CACFCDB7DEB760970FB6F894DEBF0FBE47
:10055000CDBF0E94C4011092800082E08093810090
:100560008EE20E94D00162E070E08BE490E00E9495
:10057000430269837A838B839C838EE20E94D0013D
:1005800062E070E087E990E00E9443026D837E8321
:100590008F8398878EE20E94D00162E070E088E14C
:1005A00091E00E94430269877A878B879C878EE25D
:1005B0000E94D00162E070E08FE691E00E94430269
:1005C0006D877E878F87988B8EE20E94D0010E9474
:1005D000E40180E091E00E94D7010E94E40169817A
:1005E0007A818B819C810E94EA010E94E4010E9431
:1005F000E40186E091E00E94D7010E94E4016D8150
:100600007E818F8198850E94EA010E94E4010E9408
:10061000E40184E191E00E94D7010E94E401698530
:100620007A858B859C850E94EA010E94E4010E94E4
:10063000E4018CE191E00E94D7010E94E4016D8504
:100640007E858F8598890E94EA010E94E40180E0FE
:1006500090E060960FB6F894DEBF0FBECDBF089550
:10066000A29FB001B39FC001A39F700D811D1124F3
:10067000911DB29F700D811D1124911D0895A1E25D
:100680001A2EAA1BBB1BFD010DC0AA1FBB1FEE1F0C
:10069000FF1FA217B307E407F50720F0A21BB30B57
:1006A000E40BF50B661F771F881F991F1A9469F7D3
:1006B00060957095809590959B01AC01BD01CF012F
:1006C00008955058BB27AA270E9479030C94BD04B3
:1006D0000E94AF0438F00E94B60420F039F49F3F26
:1006E00019F426F40C94AC040EF4E095E7FB0C949A
:1006F000A604E92F0E94CE0458F3BA1762077307C5
:100700008407950720F079F4A6F50C94F0040EF414
:10071000E0950B2EBA2FA02D0B01B90190010C0111
:10072000CA01A0011124FF27591B99F0593F50F429
:10073000503E68F11A16F040A22F232F342F442781
:10074000585FF3CF469537952795A795F040539579
:10075000C9F77EF41F16BA0B620B730B840BBAF049
:100760009150A1F0FF0FBB1F661F771F881FC2F7B4
:100770000EC0BA0F621F731F841F48F487957795C8
:100780006795B795F7959E3F08F0B0CF9395880F82
:1007900008F09927EE0F9795879508950E94820497
:1007A00008F481E008950E94E7030C94BD040E94C0
:1007B000B60458F00E94AF0440F029F45F3F29F0DE
:1007C0000C94A60451110C94F1040C94AC040E94F6
:1007D000CE0468F39923B1F3552391F3951B550B80
:1007E000BB27AA2762177307840738F09F5F5F4F04
:1007F000220F331F441FAA1FA9F335D00E2E3AF043
:10080000E0E832D091505040E695001CCAF72BD05A
:10081000FE2F29D0660F771F881FBB1F26173707AB
:100820004807AB07B0E809F0BB0B802DBF01FF27DD
:1008300093585F4F3AF09E3F510578F00C94A60410
:100840000C94F1045F3FE4F3983ED4F386957795DA
:100850006795B795F7959F5FC9F7880F911D969596
:10086000879597F90895E1E0660F771F881FBB1FF2
:10087000621773078407BA0720F0621B730B840B9F
:10088000BA0BEE1F88F7E0950895E89409C097FB2E
:100890003EF490958095709561957F4F8F4F9F4F57
:1008A0009923A9F0F92F96E9BB279395F69587959B
:1008B00077956795B795F111F8CFFAF4BB0F11F45E
:1008C00060FF1BC06F5F7F4F8F4F9F4F16C0882305
:1008D00011F096E911C0772321F09EE8872F762F3B
:1008E00005C0662371F096E8862F70E060E02AF07C
:1008F0009A95660F771F881FDAF7880F9695879568
:1009000097F90895990F0008550FAA0BE0E8FEEF3C
:1009100016161706E807F907C0F012161306E407C3
:10092000F50798F0621B730B840B950B39F40A26BC
:1009300061F0232B242B252B21F408950A2609F49A
:10094000A140A6958FEF811D811D089597F99F679E
:1009500080E870E060E008959FEF80EC0895002447
:100960000A941616170618060906089500240A9414
:1009700012161306140605060895092E0394000C9A
:1009800011F4882352F0BB0F40F4BF2B11F460FF29
:1009900004C06F5F7F4F8F4F9F4F089557FD905852
:1009A000440F551F59F05F3F71F04795880F97FB33
:1009B000991F61F09F3F79F08795089512161306ED
:1009C0001406551FF2CF4695F1DF08C0161617061C
:1009D0001806991FF1CF8695710561050894089551
:1009E000E894BB2766277727CB0197F908950E94E3
:1009F000820408F48FEF08950E940F050C94BD0443
:100A00000E94AF0438F00E94B60420F0952311F044
:100A10000C94A6040C94AC0411240C94F1040E94D0
:100A2000CE0470F3959FC1F3950F50E0551F629F60
:100A3000F001729FBB27F00DB11D639FAA27F00D37
:100A4000B11DAA1F649F6627B00DA11D661F829F5E
:100A50002227B00DA11D621F739FB00DA11D621F43
:100A6000839FA00D611D221F749F3327A00D611D60
:100A7000231F849F600D211D822F762F6A2F112442
:100A80009F5750409AF0F1F088234AF0EE0FFF1F75
:100A9000BB1F661F771F881F91505040A9F79E3FCC
:100AA000510580F00C94A6040C94F1045F3FE4F32C
:100AB000983ED4F3869577956795B795F795E79522
:100AC0009F5FC1F7FE2B880F911D9695879597F92B
:060AD0000895F894FFCF29
:100AD6004E414956450042494E41525920534541DF
:100AE600524348004E4557544F4E53005155414BC3
:060AF600452049494900BA
:00000001FF
